{
  "_format": "hh-sol-artifact-1",
  "contractName": "MoonLotto",
  "sourceName": "contracts/MoonLotto.sol",
  "abi": [
    {
      "inputs": [
        {
          "internalType": "uint256",
          "name": "_ticketPrice",
          "type": "uint256"
        },
        {
          "internalType": "uint256",
          "name": "_lotteryRoundTime",
          "type": "uint256"
        },
        {
          "internalType": "uint256",
          "name": "_minRoundPlayers",
          "type": "uint256"
        }
      ],
      "stateMutability": "nonpayable",
      "type": "constructor"
    },
    {
      "anonymous": false,
      "inputs": [
        {
          "indexed": false,
          "internalType": "uint256",
          "name": "ticketIndex",
          "type": "uint256"
        },
        {
          "indexed": false,
          "internalType": "address",
          "name": "winner",
          "type": "address"
        },
        {
          "indexed": false,
          "internalType": "uint256",
          "name": "round",
          "type": "uint256"
        },
        {
          "indexed": false,
          "internalType": "bool",
          "name": "isGifted",
          "type": "bool"
        },
        {
          "indexed": false,
          "internalType": "uint256",
          "name": "prizeAmount",
          "type": "uint256"
        },
        {
          "indexed": false,
          "internalType": "uint256",
          "name": "timestamp",
          "type": "uint256"
        }
      ],
      "name": "LotteryResult",
      "type": "event"
    },
    {
      "anonymous": false,
      "inputs": [
        {
          "indexed": false,
          "internalType": "uint256",
          "name": "ticketIndex",
          "type": "uint256"
        },
        {
          "indexed": false,
          "internalType": "address",
          "name": "player",
          "type": "address"
        },
        {
          "indexed": false,
          "internalType": "uint256",
          "name": "round",
          "type": "uint256"
        },
        {
          "indexed": false,
          "internalType": "bool",
          "name": "isGifted",
          "type": "bool"
        },
        {
          "indexed": false,
          "internalType": "uint256",
          "name": "prizeAmount",
          "type": "uint256"
        }
      ],
      "name": "PlayerJoined",
      "type": "event"
    },
    {
      "inputs": [],
      "name": "currentRound",
      "outputs": [
        {
          "internalType": "uint256",
          "name": "",
          "type": "uint256"
        }
      ],
      "stateMutability": "view",
      "type": "function"
    },
    {
      "inputs": [],
      "name": "getLotteryRoundTime",
      "outputs": [
        {
          "internalType": "uint256",
          "name": "",
          "type": "uint256"
        }
      ],
      "stateMutability": "view",
      "type": "function"
    },
    {
      "inputs": [],
      "name": "getMinRoundPlayers",
      "outputs": [
        {
          "internalType": "uint256",
          "name": "",
          "type": "uint256"
        }
      ],
      "stateMutability": "view",
      "type": "function"
    },
    {
      "inputs": [
        {
          "internalType": "address",
          "name": "_recipient",
          "type": "address"
        }
      ],
      "name": "giftTicket",
      "outputs": [],
      "stateMutability": "payable",
      "type": "function"
    },
    {
      "inputs": [
        {
          "internalType": "uint256",
          "name": "",
          "type": "uint256"
        }
      ],
      "name": "isGift",
      "outputs": [
        {
          "internalType": "bool",
          "name": "",
          "type": "bool"
        }
      ],
      "stateMutability": "view",
      "type": "function"
    },
    {
      "inputs": [],
      "name": "joinLottery",
      "outputs": [],
      "stateMutability": "payable",
      "type": "function"
    },
    {
      "inputs": [],
      "name": "lastTime",
      "outputs": [
        {
          "internalType": "uint256",
          "name": "",
          "type": "uint256"
        }
      ],
      "stateMutability": "view",
      "type": "function"
    },
    {
      "inputs": [],
      "name": "owner",
      "outputs": [
        {
          "internalType": "address",
          "name": "",
          "type": "address"
        }
      ],
      "stateMutability": "view",
      "type": "function"
    },
    {
      "inputs": [
        {
          "internalType": "uint256",
          "name": "",
          "type": "uint256"
        }
      ],
      "name": "players",
      "outputs": [
        {
          "internalType": "address",
          "name": "",
          "type": "address"
        }
      ],
      "stateMutability": "view",
      "type": "function"
    },
    {
      "inputs": [],
      "name": "prizeAmount",
      "outputs": [
        {
          "internalType": "uint256",
          "name": "",
          "type": "uint256"
        }
      ],
      "stateMutability": "view",
      "type": "function"
    },
    {
      "inputs": [],
      "name": "ticketPrice",
      "outputs": [
        {
          "internalType": "uint256",
          "name": "",
          "type": "uint256"
        }
      ],
      "stateMutability": "view",
      "type": "function"
    },
    {
      "inputs": [
        {
          "internalType": "uint256",
          "name": "",
          "type": "uint256"
        }
      ],
      "name": "winners",
      "outputs": [
        {
          "internalType": "address",
          "name": "",
          "type": "address"
        }
      ],
      "stateMutability": "view",
      "type": "function"
    }
  ],
  "bytecode": "0x608060405234801561001057600080fd5b506040516109c53803806109c583398101604081905261002f9161005b565b600980546001600160a01b03191633179055426003556001600655600492909255600755600855610088565b60008060006060848603121561006f578283fd5b8351925060208401519150604084015190509250925092565b61092e806100976000396000f3fe6080604052600436106100a75760003560e01c80638da5cb5b116100645780638da5cb5b1461015057806393e9a08414610188578063a2fb11751461019e578063c45a92e2146101be578063f71d96cb146101d3578063f9ec27b0146101f3576100a7565b80630c6131b4146100ac5780631209b1f6146100d45780636c77f989146100ea57806376910c5e146100f4578063785fa627146101245780638a19c8bc1461013a575b600080fd5b3480156100b857600080fd5b506100c1610206565b6040519081526020015b60405180910390f35b3480156100e057600080fd5b506100c160045481565b6100f2610243565b005b34801561010057600080fd5b5061011461010f3660046107c7565b610297565b60405190151581526020016100cb565b34801561013057600080fd5b506100c160055481565b34801561014657600080fd5b506100c160065481565b34801561015c57600080fd5b50600954610170906001600160a01b031681565b6040516001600160a01b0390911681526020016100cb565b34801561019457600080fd5b506100c160035481565b3480156101aa57600080fd5b506101706101b93660046107c7565b6102cb565b3480156101ca57600080fd5b506100c16102f5565b3480156101df57600080fd5b506101706101ee3660046107c7565b610329565b6100f2610201366004610799565b610339565b6009546000906001600160a01b0316331461023c5760405162461bcd60e51b81526004016102339061082c565b60405180910390fd5b5060085490565b6001805480820182556000919091527fb10e2d527612073b26eecdfd717e6a320cf44b4afac2b0732d9fcbe2b7fa0cf660208204018054601f9092166101000a60ff0219909116905561029533610391565b565b600181815481106102a757600080fd5b9060005260206000209060209182820401919006915054906101000a900460ff1681565b600281815481106102db57600080fd5b6000918252602090912001546001600160a01b0316905081565b6009546000906001600160a01b031633146103225760405162461bcd60e51b81526004016102339061082c565b5060075490565b600081815481106102db57600080fd5b600180548082018255600091909152602081047fb10e2d527612073b26eecdfd717e6a320cf44b4afac2b0732d9fcbe2b7fa0cf601805460ff601f9093166101000a9283021916909117905561038e81610391565b50565b6004543410156103e35760405162461bcd60e51b815260206004820152601d60248201527f416d6f756e742073656e74206c657373207468616e206d696e696d756d0000006044820152606401610233565b6004543411156104355760405162461bcd60e51b815260206004820152601d60248201527f416d6f756e742073656e74206d6f7265207468616e206d696e696d756d0000006044820152606401610233565b60008054600180820183558280527f290decd9548b62a8d60345a988386fc84ba6bc95484008f6362f93160ef3e56390910180546001600160a01b0319166001600160a01b0385161790554760055590547ff9e7a9da4f9a12377c11f3eb04adcdd6b78c503c781f6ae43f7d3553e22987bf916104b191610890565b8260065460018080805490506104c79190610890565b815481106104e557634e487b7160e01b600052603260045260246000fd5b60009182526020918290208282040154600554604080519788526001600160a01b03969096169387019390935285850193909352601f166101000a90910460ff16151560608401526080830152519081900360a00190a160075460035461054c9190610878565b421015801561055f575060085460005410155b1561038e5761038e6000805461057361070b565b61057d91906108c2565b905060008082815481106105a157634e487b7160e01b600052603260045260246000fd5b60009182526020822001546040516001600160a01b03909116925082914780156108fc02929091818181858888f193505050501580156105e5573d6000803e3d6000fd5b507fa3ef497e45543d9c85ed837857316dfd5ad8b178faed7a9b7a1e947669d1bf6182826006546001868154811061062d57634e487b7160e01b600052603260045260246000fd5b60009182526020918290208282040154600554604080519788526001600160a01b03969096169387019390935285850193909352601f166101000a90910460ff161515606084015260808301524260a0830152519081900360c00190a16002805460018101825560009182527f405787fa12a823e0f2b7631cc41b3ba8828b3321ca811111fa75cd3aa3bb5ace0180546001600160a01b0319166001600160a01b03841617905560068054916106e2836108a7565b9091555050426003556106f6600080610741565b6107026001600061075f565b50506000600555565b600043426000604051602001610723939291906107df565b6040516020818303038152906040528051906020012060001c905090565b508054600082559060005260206000209081019061038e9190610780565b50805460008255601f01602090049060005260206000209081019061038e91905b5b808211156107955760008155600101610781565b5090565b6000602082840312156107aa578081fd5b81356001600160a01b03811681146107c0578182fd5b9392505050565b6000602082840312156107d8578081fd5b5035919050565b600084825260208481840152604083018454858452828420845b8281101561081e5781546001600160a01b0316845292840192600191820191016107f9565b509198975050505050505050565b6020808252602c908201527f54686973206d6574686f642069732072657374726963746564206a757374206660408201526b37b9103a34329037bbb732b960a11b606082015260800190565b6000821982111561088b5761088b6108e2565b500190565b6000828210156108a2576108a26108e2565b500390565b60006000198214156108bb576108bb6108e2565b5060010190565b6000826108dd57634e487b7160e01b81526012600452602481fd5b500690565b634e487b7160e01b600052601160045260246000fdfea26469706673582212204c1f2ea00d1def93491b4f299dc3344ffb5b9c4584f276a9a69399e1b73fe38e64736f6c63430008030033",
  "linkReferences": {},
  "deployedLinkReferences": {}
}